{
  "_format": "hh-sol-artifact-1",
  "contractName": "Staking",
  "sourceName": "contracts/staking.sol",
  "abi": [
    {
      "inputs": [
        {
          "internalType": "address",
          "name": "_verifier",
          "type": "address"
        },
        {
          "internalType": "address",
          "name": "nft",
          "type": "address"
        }
      ],
      "stateMutability": "nonpayable",
      "type": "constructor"
    },
    {
      "anonymous": false,
      "inputs": [
        {
          "indexed": true,
          "internalType": "uint256",
          "name": "groupId",
          "type": "uint256"
        },
        {
          "indexed": false,
          "internalType": "uint8",
          "name": "depth",
          "type": "uint8"
        },
        {
          "indexed": false,
          "internalType": "uint256",
          "name": "zeroValue",
          "type": "uint256"
        }
      ],
      "name": "GroupCreated",
      "type": "event"
    },
    {
      "anonymous": false,
      "inputs": [
        {
          "indexed": true,
          "internalType": "uint256",
          "name": "groupId",
          "type": "uint256"
        },
        {
          "indexed": false,
          "internalType": "uint256",
          "name": "identityCommitment",
          "type": "uint256"
        },
        {
          "indexed": false,
          "internalType": "uint256",
          "name": "root",
          "type": "uint256"
        }
      ],
      "name": "MemberAdded",
      "type": "event"
    },
    {
      "anonymous": false,
      "inputs": [
        {
          "indexed": true,
          "internalType": "uint256",
          "name": "groupId",
          "type": "uint256"
        },
        {
          "indexed": false,
          "internalType": "uint256",
          "name": "identityCommitment",
          "type": "uint256"
        },
        {
          "indexed": false,
          "internalType": "uint256",
          "name": "root",
          "type": "uint256"
        }
      ],
      "name": "MemberRemoved",
      "type": "event"
    },
    {
      "anonymous": false,
      "inputs": [
        {
          "indexed": false,
          "internalType": "uint256",
          "name": "nullifierHash",
          "type": "uint256"
        }
      ],
      "name": "NullifierHashAdded",
      "type": "event"
    },
    {
      "anonymous": false,
      "inputs": [
        {
          "indexed": true,
          "internalType": "address",
          "name": "previousOwner",
          "type": "address"
        },
        {
          "indexed": true,
          "internalType": "address",
          "name": "newOwner",
          "type": "address"
        }
      ],
      "name": "OwnershipTransferred",
      "type": "event"
    },
    {
      "inputs": [
        {
          "internalType": "uint256",
          "name": "entityId",
          "type": "uint256"
        },
        {
          "internalType": "uint256",
          "name": "identityCommitment",
          "type": "uint256"
        }
      ],
      "name": "addDAOIdentity",
      "outputs": [],
      "stateMutability": "nonpayable",
      "type": "function"
    },
    {
      "inputs": [
        {
          "internalType": "uint256",
          "name": "entity",
          "type": "uint256"
        },
        {
          "internalType": "uint256",
          "name": "identityCommitment",
          "type": "uint256"
        }
      ],
      "name": "addTestCommitment",
      "outputs": [],
      "stateMutability": "nonpayable",
      "type": "function"
    },
    {
      "inputs": [],
      "name": "asset",
      "outputs": [
        {
          "internalType": "address",
          "name": "",
          "type": "address"
        }
      ],
      "stateMutability": "view",
      "type": "function"
    },
    {
      "inputs": [
        {
          "internalType": "uint256",
          "name": "entityId",
          "type": "uint256"
        },
        {
          "internalType": "address",
          "name": "editor",
          "type": "address"
        },
        {
          "internalType": "address",
          "name": "token",
          "type": "address"
        },
        {
          "internalType": "uint256",
          "name": "tokenId",
          "type": "uint256"
        }
      ],
      "name": "createEntity",
      "outputs": [],
      "stateMutability": "nonpayable",
      "type": "function"
    },
    {
      "inputs": [
        {
          "internalType": "uint256",
          "name": "groupId",
          "type": "uint256"
        }
      ],
      "name": "getDepth",
      "outputs": [
        {
          "internalType": "uint8",
          "name": "",
          "type": "uint8"
        }
      ],
      "stateMutability": "view",
      "type": "function"
    },
    {
      "inputs": [
        {
          "internalType": "uint256",
          "name": "groupId",
          "type": "uint256"
        }
      ],
      "name": "getNumberOfLeaves",
      "outputs": [
        {
          "internalType": "uint256",
          "name": "",
          "type": "uint256"
        }
      ],
      "stateMutability": "view",
      "type": "function"
    },
    {
      "inputs": [
        {
          "internalType": "uint256",
          "name": "groupId",
          "type": "uint256"
        }
      ],
      "name": "getRoot",
      "outputs": [
        {
          "internalType": "uint256",
          "name": "",
          "type": "uint256"
        }
      ],
      "stateMutability": "view",
      "type": "function"
    },
    {
      "inputs": [
        {
          "internalType": "uint256",
          "name": "id",
          "type": "uint256"
        }
      ],
      "name": "getTreeInfo",
      "outputs": [
        {
          "internalType": "uint256[]",
          "name": "",
          "type": "uint256[]"
        },
        {
          "internalType": "uint256",
          "name": "",
          "type": "uint256"
        }
      ],
      "stateMutability": "view",
      "type": "function"
    },
    {
      "inputs": [
        {
          "internalType": "uint256",
          "name": "",
          "type": "uint256"
        },
        {
          "internalType": "uint256",
          "name": "",
          "type": "uint256"
        }
      ],
      "name": "groupCommitments",
      "outputs": [
        {
          "internalType": "uint256",
          "name": "",
          "type": "uint256"
        }
      ],
      "stateMutability": "view",
      "type": "function"
    },
    {
      "inputs": [
        {
          "internalType": "uint256",
          "name": "",
          "type": "uint256"
        }
      ],
      "name": "groupDeposits",
      "outputs": [
        {
          "internalType": "uint256",
          "name": "",
          "type": "uint256"
        }
      ],
      "stateMutability": "view",
      "type": "function"
    },
    {
      "inputs": [
        {
          "internalType": "uint256",
          "name": "",
          "type": "uint256"
        }
      ],
      "name": "membershipIds",
      "outputs": [
        {
          "internalType": "uint256",
          "name": "",
          "type": "uint256"
        }
      ],
      "stateMutability": "view",
      "type": "function"
    },
    {
      "inputs": [
        {
          "internalType": "uint256",
          "name": "",
          "type": "uint256"
        }
      ],
      "name": "membershipTokens",
      "outputs": [
        {
          "internalType": "address",
          "name": "",
          "type": "address"
        }
      ],
      "stateMutability": "view",
      "type": "function"
    },
    {
      "inputs": [
        {
          "internalType": "address",
          "name": "",
          "type": "address"
        },
        {
          "internalType": "address",
          "name": "",
          "type": "address"
        },
        {
          "internalType": "uint256[]",
          "name": "",
          "type": "uint256[]"
        },
        {
          "internalType": "uint256[]",
          "name": "",
          "type": "uint256[]"
        },
        {
          "internalType": "bytes",
          "name": "",
          "type": "bytes"
        }
      ],
      "name": "onERC1155BatchReceived",
      "outputs": [
        {
          "internalType": "bytes4",
          "name": "",
          "type": "bytes4"
        }
      ],
      "stateMutability": "nonpayable",
      "type": "function"
    },
    {
      "inputs": [
        {
          "internalType": "address",
          "name": "",
          "type": "address"
        },
        {
          "internalType": "address",
          "name": "",
          "type": "address"
        },
        {
          "internalType": "uint256",
          "name": "",
          "type": "uint256"
        },
        {
          "internalType": "uint256",
          "name": "",
          "type": "uint256"
        },
        {
          "internalType": "bytes",
          "name": "",
          "type": "bytes"
        }
      ],
      "name": "onERC1155Received",
      "outputs": [
        {
          "internalType": "bytes4",
          "name": "",
          "type": "bytes4"
        }
      ],
      "stateMutability": "nonpayable",
      "type": "function"
    },
    {
      "inputs": [],
      "name": "owner",
      "outputs": [
        {
          "internalType": "address",
          "name": "",
          "type": "address"
        }
      ],
      "stateMutability": "view",
      "type": "function"
    },
    {
      "inputs": [],
      "name": "renounceOwnership",
      "outputs": [],
      "stateMutability": "nonpayable",
      "type": "function"
    },
    {
      "inputs": [
        {
          "internalType": "bytes4",
          "name": "interfaceId",
          "type": "bytes4"
        }
      ],
      "name": "supportsInterface",
      "outputs": [
        {
          "internalType": "bool",
          "name": "",
          "type": "bool"
        }
      ],
      "stateMutability": "view",
      "type": "function"
    },
    {
      "inputs": [
        {
          "internalType": "address",
          "name": "newOwner",
          "type": "address"
        }
      ],
      "name": "transferOwnership",
      "outputs": [],
      "stateMutability": "nonpayable",
      "type": "function"
    },
    {
      "inputs": [
        {
          "internalType": "bytes32",
          "name": "_sig",
          "type": "bytes32"
        },
        {
          "internalType": "uint256",
          "name": "_nullifierHash",
          "type": "uint256"
        },
        {
          "internalType": "uint256[8]",
          "name": "_proof",
          "type": "uint256[8]"
        },
        {
          "internalType": "uint256",
          "name": "entityId",
          "type": "uint256"
        }
      ],
      "name": "verifyTest",
      "outputs": [
        {
          "internalType": "bool",
          "name": "",
          "type": "bool"
        }
      ],
      "stateMutability": "view",
      "type": "function"
    }
  ],
  "bytecode": "0x60806040523480156200001157600080fd5b506040516200270b3803806200270b833981810160405281019062000037919062000466565b620000576200004b620000b660201b60201c565b620000be60201b60201c565b81600860006101000a81548173ffffffffffffffffffffffffffffffffffffffff021916908373ffffffffffffffffffffffffffffffffffffffff160217905550620000ae6001338360016200018460201b60201c565b5050620006ba565b600033905090565b6000600260009054906101000a900473ffffffffffffffffffffffffffffffffffffffff16905081600260006101000a81548173ffffffffffffffffffffffffffffffffffffffff021916908373ffffffffffffffffffffffffffffffffffffffff1602179055508173ffffffffffffffffffffffffffffffffffffffff168173ffffffffffffffffffffffffffffffffffffffff167f8be0079c531659141344cd1fd0a4f28419497f9722a3daafe3b4186f6b6457e060405160405180910390a35050565b6200019984601460006200024d60201b60201c565b83600560008573ffffffffffffffffffffffffffffffffffffffff1673ffffffffffffffffffffffffffffffffffffffff16815260200190815260200160002081905550816006600086815260200190815260200160002060006101000a81548173ffffffffffffffffffffffffffffffffffffffff021916908373ffffffffffffffffffffffffffffffffffffffff16021790555080600760008681526020019081526020016000208190555050505050565b7f30644e72e131a029b85045b68181585d2833e84879b9709143e1f593f00000018310620002b2576040517f08c379a0000000000000000000000000000000000000000000000000000000008152600401620002a99062000534565b60405180910390fd5b6000620002c584620003cf60201b60201c565b60ff16146200030b576040517f08c379a00000000000000000000000000000000000000000000000000000000081526004016200030290620005cc565b60405180910390fd5b6001600084815260200190815260200160002073__$4c0484323457fe1a856f46a4759b553fe4$__63b4bdd117909184846040518463ffffffff1660e01b81526004016200035c939291906200062e565b60006040518083038186803b1580156200037557600080fd5b505af41580156200038a573d6000803e3d6000fd5b50505050827fc3082aa494e9088c2c9f0fb62a0b6bd46e6699acb94cfba35be29b95a93f68c88383604051620003c29291906200068d565b60405180910390a2505050565b60006001600083815260200190815260200160002060000160009054906101000a900460ff169050919050565b600080fd5b600073ffffffffffffffffffffffffffffffffffffffff82169050919050565b60006200042e8262000401565b9050919050565b620004408162000421565b81146200044c57600080fd5b50565b600081519050620004608162000435565b92915050565b6000806040838503121562000480576200047f620003fc565b5b600062000490858286016200044f565b9250506020620004a3858286016200044f565b9150509250929050565b600082825260208201905092915050565b7f53656d6170686f726547726f7570733a2067726f7570206964206d757374206260008201527f65203c20534e41524b5f5343414c41525f4649454c4400000000000000000000602082015250565b60006200051c603683620004ad565b91506200052982620004be565b604082019050919050565b600060208201905081810360008301526200054f816200050d565b9050919050565b7f53656d6170686f726547726f7570733a2067726f757020616c7265616479206560008201527f7869737473000000000000000000000000000000000000000000000000000000602082015250565b6000620005b4602583620004ad565b9150620005c18262000556565b604082019050919050565b60006020820190508181036000830152620005e781620005a5565b9050919050565b8082525050565b600060ff82169050919050565b6200060d81620005f5565b82525050565b6000819050919050565b620006288162000613565b82525050565b6000606082019050620006456000830186620005ee565b62000654602083018562000602565b6200066360408301846200061d565b949350505050565b6200067681620005f5565b82525050565b620006878162000613565b82525050565b6000604082019050620006a460008301856200066b565b620006b360208301846200067c565b9392505050565b61204180620006ca6000396000f3fe608060405234801561001057600080fd5b50600436106101215760003560e01c80639b24b3b0116100ad578063bc197c8111610071578063bc197c8114610340578063dbebcab214610370578063e86ac1d5146103a0578063f23a6e61146103d1578063f2fde38b1461040157610121565b80639b24b3b014610264578063b116852714610294578063b4dbabaf146102c4578063b9c78c2b146102f4578063bbad61281461032457610121565b80634d56f27d116100f45780634d56f27d146101c057806364335bc1146101f0578063715018a61461020c57806375e618c9146102165780638da5cb5b1461024657610121565b806301ffc9a71461012657806302779c1814610156578063112769da1461017257806338d52e0f146101a2575b600080fd5b610140600480360381019061013b9190611081565b61041d565b60405161014d91906110c9565b60405180910390f35b610170600480360381019061016b9190611178565b610497565b005b61018c600480360381019061018791906111df565b610558565b604051610199919061122e565b60405180910390f35b6101aa610589565b6040516101b79190611258565b60405180910390f35b6101da60048036038101906101d59190611273565b6105af565b6040516101e79190611258565b60405180910390f35b61020a600480360381019061020591906111df565b6105e2565b005b61021461062a565b005b610230600480360381019061022b9190611273565b61063e565b60405161023d91906112bc565b60405180910390f35b61024e61066b565b60405161025b9190611258565b60405180910390f35b61027e60048036038101906102799190611273565b610695565b60405161028b919061122e565b60405180910390f35b6102ae60048036038101906102a99190611273565b6106b5565b6040516102bb919061122e565b60405180910390f35b6102de60048036038101906102d99190611273565b6106cd565b6040516102eb919061122e565b60405180910390f35b61030e60048036038101906103099190611273565b6106e5565b60405161031b919061122e565b60405180910390f35b61033e600480360381019061033991906111df565b610705565b005b61035a600480360381019061035591906114e5565b610805565b60405161036791906115c3565b60405180910390f35b61038a60048036038101906103859190611636565b61081a565b60405161039791906110c9565b60405180910390f35b6103ba60048036038101906103b59190611273565b610865565b6040516103c892919061175d565b60405180910390f35b6103eb60048036038101906103e6919061178d565b6108e0565b6040516103f891906115c3565b60405180910390f35b61041b60048036038101906104169190611824565b6108f5565b005b60007f4e2312e0000000000000000000000000000000000000000000000000000000007bffffffffffffffffffffffffffffffffffffffffffffffffffffffff1916827bffffffffffffffffffffffffffffffffffffffffffffffffffffffff19161480610490575061048f82610979565b5b9050919050565b6104a484601460006109e3565b83600560008573ffffffffffffffffffffffffffffffffffffffff1673ffffffffffffffffffffffffffffffffffffffff16815260200190815260200160002081905550816006600086815260200190815260200160002060006101000a81548173ffffffffffffffffffffffffffffffffffffffff021916908373ffffffffffffffffffffffffffffffffffffffff16021790555080600760008681526020019081526020016000208190555050505050565b6004602052816000526040600020818154811061057457600080fd5b90600052602060002001600091509150505481565b600960009054906101000a900473ffffffffffffffffffffffffffffffffffffffff1681565b60066020528060005260406000206000915054906101000a900473ffffffffffffffffffffffffffffffffffffffff1681565b600460008381526020019081526020016000208190806001815401808255809150506001900390600052602060002001600090919091909150556106268282610b51565b5050565b610632610c69565b61063c6000610ce7565b565b60006001600083815260200190815260200160002060000160009054906101000a900460ff169050919050565b6000600260009054906101000a900473ffffffffffffffffffffffffffffffffffffffff16905090565b600060016000838152602001908152602001600020600101549050919050565b60036020528060005260406000206000915090505481565b60076020528060005260406000206000915090505481565b600060016000838152602001908152602001600020600201549050919050565b6006600083815260200190815260200160002060009054906101000a900473ffffffffffffffffffffffffffffffffffffffff1673ffffffffffffffffffffffffffffffffffffffff1663f242432a3330600760008781526020019081526020016000205460016040518563ffffffff1660e01b815260040161078b94939291906118cd565b600060405180830381600087803b1580156107a557600080fd5b505af11580156107b9573d6000803e3d6000fd5b50505050600460008381526020019081526020016000208190806001815401808255809150506001900390600052602060002001600090919091909150556108018282610b51565b5050565b600063bc197c8160e01b905095945050505050565b60008061082683610695565b90506108588682878488600860009054906101000a900473ffffffffffffffffffffffffffffffffffffffff16610dad565b6001915050949350505050565b606060006004600084815260200190815260200160002061088584610695565b818054806020026020016040519081016040528092919081815260200182805480156108d057602002820191906000526020600020905b8154815260200190600101908083116108bc575b5050505050915091509150915091565b600063f23a6e6160e01b905095945050505050565b6108fd610c69565b600073ffffffffffffffffffffffffffffffffffffffff168173ffffffffffffffffffffffffffffffffffffffff16141561096d576040517f08c379a0000000000000000000000000000000000000000000000000000000008152600401610964906119a8565b60405180910390fd5b61097681610ce7565b50565b60007f01ffc9a7000000000000000000000000000000000000000000000000000000007bffffffffffffffffffffffffffffffffffffffffffffffffffffffff1916827bffffffffffffffffffffffffffffffffffffffffffffffffffffffff1916149050919050565b7f30644e72e131a029b85045b68181585d2833e84879b9709143e1f593f00000018310610a45576040517f08c379a0000000000000000000000000000000000000000000000000000000008152600401610a3c90611a3a565b60405180910390fd5b6000610a508461063e565b60ff1614610a93576040517f08c379a0000000000000000000000000000000000000000000000000000000008152600401610a8a90611acc565b60405180910390fd5b6001600084815260200190815260200160002073__$4c0484323457fe1a856f46a4759b553fe4$__63b4bdd117909184846040518463ffffffff1660e01b8152600401610ae293929190611b11565b60006040518083038186803b158015610afa57600080fd5b505af4158015610b0e573d6000803e3d6000fd5b50505050827fc3082aa494e9088c2c9f0fb62a0b6bd46e6699acb94cfba35be29b95a93f68c88383604051610b44929190611b48565b60405180910390a2505050565b6000610b5c8361063e565b60ff161415610ba0576040517f08c379a0000000000000000000000000000000000000000000000000000000008152600401610b9790611be3565b60405180910390fd5b6001600083815260200190815260200160002073__$4c0484323457fe1a856f46a4759b553fe4$__63168703fa9091836040518363ffffffff1660e01b8152600401610bed929190611c03565b60006040518083038186803b158015610c0557600080fd5b505af4158015610c19573d6000803e3d6000fd5b505050506000610c2883610695565b9050827f03fd27265b7dd1f55558bedc22a58fa3b10afb1be776e614bd5a7ba7b94994068383604051610c5c929190611c2c565b60405180910390a2505050565b610c71610fd6565b73ffffffffffffffffffffffffffffffffffffffff16610c8f61066b565b73ffffffffffffffffffffffffffffffffffffffff1614610ce5576040517f08c379a0000000000000000000000000000000000000000000000000000000008152600401610cdc90611ca1565b60405180910390fd5b565b6000600260009054906101000a900473ffffffffffffffffffffffffffffffffffffffff16905081600260006101000a81548173ffffffffffffffffffffffffffffffffffffffff021916908373ffffffffffffffffffffffffffffffffffffffff1602179055508173ffffffffffffffffffffffffffffffffffffffff168173ffffffffffffffffffffffffffffffffffffffff167f8be0079c531659141344cd1fd0a4f28419497f9722a3daafe3b4186f6b6457e060405160405180910390a35050565b60008085815260200190815260200160002060009054906101000a900460ff1615610e0d576040517f08c379a0000000000000000000000000000000000000000000000000000000008152600401610e0490611d33565b60405180910390fd5b6000610e1887610fde565b90508173ffffffffffffffffffffffffffffffffffffffff16635fe8c13b604051806040016040528086600060088110610e5557610e54611d53565b5b6020020135815260200186600160088110610e7357610e72611d53565b5b60200201358152506040518060400160405280604051806040016040528089600260088110610ea557610ea4611d53565b5b6020020135815260200189600360088110610ec357610ec2611d53565b5b60200201358152508152602001604051806040016040528089600460088110610eef57610eee611d53565b5b6020020135815260200189600560088110610f0d57610f0c611d53565b5b6020020135815250815250604051806040016040528088600660088110610f3757610f36611d53565b5b6020020135815260200188600760088110610f5557610f54611d53565b5b602002013581525060405180608001604052808c81526020018b81526020018781526020018a8152506040518563ffffffff1660e01b8152600401610f9d9493929190611f88565b60006040518083038186803b158015610fb557600080fd5b505afa158015610fc9573d6000803e3d6000fd5b5050505050505050505050565b600033905090565b6000600882604051602001610ff39190611ff0565b6040516020818303038152906040528051906020012060001c901c9050919050565b6000604051905090565b600080fd5b600080fd5b60007fffffffff0000000000000000000000000000000000000000000000000000000082169050919050565b61105e81611029565b811461106957600080fd5b50565b60008135905061107b81611055565b92915050565b6000602082840312156110975761109661101f565b5b60006110a58482850161106c565b91505092915050565b60008115159050919050565b6110c3816110ae565b82525050565b60006020820190506110de60008301846110ba565b92915050565b6000819050919050565b6110f7816110e4565b811461110257600080fd5b50565b600081359050611114816110ee565b92915050565b600073ffffffffffffffffffffffffffffffffffffffff82169050919050565b60006111458261111a565b9050919050565b6111558161113a565b811461116057600080fd5b50565b6000813590506111728161114c565b92915050565b600080600080608085870312156111925761119161101f565b5b60006111a087828801611105565b94505060206111b187828801611163565b93505060406111c287828801611163565b92505060606111d387828801611105565b91505092959194509250565b600080604083850312156111f6576111f561101f565b5b600061120485828601611105565b925050602061121585828601611105565b9150509250929050565b611228816110e4565b82525050565b6000602082019050611243600083018461121f565b92915050565b6112528161113a565b82525050565b600060208201905061126d6000830184611249565b92915050565b6000602082840312156112895761128861101f565b5b600061129784828501611105565b91505092915050565b600060ff82169050919050565b6112b6816112a0565b82525050565b60006020820190506112d160008301846112ad565b92915050565b600080fd5b6000601f19601f8301169050919050565b7f4e487b7100000000000000000000000000000000000000000000000000000000600052604160045260246000fd5b611325826112dc565b810181811067ffffffffffffffff82111715611344576113436112ed565b5b80604052505050565b6000611357611015565b9050611363828261131c565b919050565b600067ffffffffffffffff821115611383576113826112ed565b5b602082029050602081019050919050565b600080fd5b60006113ac6113a784611368565b61134d565b905080838252602082019050602084028301858111156113cf576113ce611394565b5b835b818110156113f857806113e48882611105565b8452602084019350506020810190506113d1565b5050509392505050565b600082601f830112611417576114166112d7565b5b8135611427848260208601611399565b91505092915050565b600080fd5b600067ffffffffffffffff8211156114505761144f6112ed565b5b611459826112dc565b9050602081019050919050565b82818337600083830152505050565b600061148861148384611435565b61134d565b9050828152602081018484840111156114a4576114a3611430565b5b6114af848285611466565b509392505050565b600082601f8301126114cc576114cb6112d7565b5b81356114dc848260208601611475565b91505092915050565b600080600080600060a086880312156115015761150061101f565b5b600061150f88828901611163565b955050602061152088828901611163565b945050604086013567ffffffffffffffff81111561154157611540611024565b5b61154d88828901611402565b935050606086013567ffffffffffffffff81111561156e5761156d611024565b5b61157a88828901611402565b925050608086013567ffffffffffffffff81111561159b5761159a611024565b5b6115a7888289016114b7565b9150509295509295909350565b6115bd81611029565b82525050565b60006020820190506115d860008301846115b4565b92915050565b6000819050919050565b6115f1816115de565b81146115fc57600080fd5b50565b60008135905061160e816115e8565b92915050565b6000819050826020600802820111156116305761162f611394565b5b92915050565b60008060008061016085870312156116515761165061101f565b5b600061165f878288016115ff565b945050602061167087828801611105565b935050604061168187828801611614565b92505061014061169387828801611105565b91505092959194509250565b600081519050919050565b600082825260208201905092915050565b6000819050602082019050919050565b6116d4816110e4565b82525050565b60006116e683836116cb565b60208301905092915050565b6000602082019050919050565b600061170a8261169f565b61171481856116aa565b935061171f836116bb565b8060005b8381101561175057815161173788826116da565b9750611742836116f2565b925050600181019050611723565b5085935050505092915050565b6000604082019050818103600083015261177781856116ff565b9050611786602083018461121f565b9392505050565b600080600080600060a086880312156117a9576117a861101f565b5b60006117b788828901611163565b95505060206117c888828901611163565b94505060406117d988828901611105565b93505060606117ea88828901611105565b925050608086013567ffffffffffffffff81111561180b5761180a611024565b5b611817888289016114b7565b9150509295509295909350565b60006020828403121561183a5761183961101f565b5b600061184884828501611163565b91505092915050565b6000819050919050565b6000819050919050565b600061188061187b61187684611851565b61185b565b6110e4565b9050919050565b61189081611865565b82525050565b600082825260208201905092915050565b50565b60006118b7600083611896565b91506118c2826118a7565b600082019050919050565b600060a0820190506118e26000830187611249565b6118ef6020830186611249565b6118fc604083018561121f565b6119096060830184611887565b818103608083015261191a816118aa565b905095945050505050565b600082825260208201905092915050565b7f4f776e61626c653a206e6577206f776e657220697320746865207a65726f206160008201527f6464726573730000000000000000000000000000000000000000000000000000602082015250565b6000611992602683611925565b915061199d82611936565b604082019050919050565b600060208201905081810360008301526119c181611985565b9050919050565b7f53656d6170686f726547726f7570733a2067726f7570206964206d757374206260008201527f65203c20534e41524b5f5343414c41525f4649454c4400000000000000000000602082015250565b6000611a24603683611925565b9150611a2f826119c8565b604082019050919050565b60006020820190508181036000830152611a5381611a17565b9050919050565b7f53656d6170686f726547726f7570733a2067726f757020616c7265616479206560008201527f7869737473000000000000000000000000000000000000000000000000000000602082015250565b6000611ab6602583611925565b9150611ac182611a5a565b604082019050919050565b60006020820190508181036000830152611ae581611aa9565b9050919050565b8082525050565b611afc816112a0565b82525050565b611b0b816110e4565b82525050565b6000606082019050611b266000830186611aec565b611b336020830185611af3565b611b406040830184611b02565b949350505050565b6000604082019050611b5d60008301856112ad565b611b6a602083018461121f565b9392505050565b7f53656d6170686f726547726f7570733a2067726f757020646f6573206e6f742060008201527f6578697374000000000000000000000000000000000000000000000000000000602082015250565b6000611bcd602583611925565b9150611bd882611b71565b604082019050919050565b60006020820190508181036000830152611bfc81611bc0565b9050919050565b6000604082019050611c186000830185611aec565b611c256020830184611b02565b9392505050565b6000604082019050611c41600083018561121f565b611c4e602083018461121f565b9392505050565b7f4f776e61626c653a2063616c6c6572206973206e6f7420746865206f776e6572600082015250565b6000611c8b602083611925565b9150611c9682611c55565b602082019050919050565b60006020820190508181036000830152611cba81611c7e565b9050919050565b7f53656d6170686f7265436f72653a20796f752063616e6e6f742075736520746860008201527f652073616d65206e756c6c696669657220747769636500000000000000000000602082015250565b6000611d1d603683611925565b9150611d2882611cc1565b604082019050919050565b60006020820190508181036000830152611d4c81611d10565b9050919050565b7f4e487b7100000000000000000000000000000000000000000000000000000000600052603260045260246000fd5b600060029050919050565b600081905092915050565b6000819050919050565b6000602082019050919050565b611db881611d82565b611dc28184611d8d565b9250611dcd82611d98565b8060005b83811015611dfe578151611de587826116da565b9650611df083611da2565b925050600181019050611dd1565b505050505050565b600060029050919050565b600081905092915050565b6000819050919050565b600081905092915050565b611e3a81611d82565b611e448184611e26565b9250611e4f82611d98565b8060005b83811015611e80578151611e6787826116da565b9650611e7283611da2565b925050600181019050611e53565b505050505050565b6000611e948383611e31565b60408301905092915050565b6000602082019050919050565b611eb681611e06565b611ec08184611e11565b9250611ecb82611e1c565b8060005b83811015611efc578151611ee38782611e88565b9650611eee83611ea0565b925050600181019050611ecf565b505050505050565b600060049050919050565b600081905092915050565b6000819050919050565b6000602082019050919050565b611f3a81611f04565b611f448184611f0f565b9250611f4f82611f1a565b8060005b83811015611f80578151611f6787826116da565b9650611f7283611f24565b925050600181019050611f53565b505050505050565b600061018082019050611f9e6000830187611daf565b611fab6040830186611ead565b611fb860c0830185611daf565b611fc6610100830184611f31565b95945050505050565b6000819050919050565b611fea611fe5826115de565b611fcf565b82525050565b6000611ffc8284611fd9565b6020820191508190509291505056fea264697066735822122061cff4553e857d7a6255c8d9fd2c7303dbef1eaf72a6bf93b287fcc7c5eece8064736f6c634300080b0033",
  "linkReferences": {
    "@zk-kit/incremental-merkle-tree.sol/contracts/IncrementalBinaryTree.sol": {
      "IncrementalBinaryTree": [
        {
          "length": 20,
          "start": 800
        },
        {
          "length": 20,
          "start": 4466
        },
        {
          "length": 20,
          "start": 4735
        }
      ]
    }
  },
  "deployedLinkReferences": {
    "@zk-kit/incremental-merkle-tree.sol/contracts/IncrementalBinaryTree.sol": {
      "IncrementalBinaryTree": [
        {
          "length": 20,
          "start": 2728
        },
        {
          "length": 20,
          "start": 2997
        }
      ]
    }
  }
}