{
  "_format": "hh-sol-artifact-1",
  "contractName": "Staking",
  "sourceName": "contracts/staking.sol",
  "abi": [
    {
      "inputs": [
        {
          "internalType": "address",
          "name": "_verifier",
          "type": "address"
        },
        {
          "internalType": "address",
          "name": "nft",
          "type": "address"
        }
      ],
      "stateMutability": "nonpayable",
      "type": "constructor"
    },
    {
      "anonymous": false,
      "inputs": [
        {
          "indexed": true,
          "internalType": "uint256",
          "name": "groupId",
          "type": "uint256"
        },
        {
          "indexed": false,
          "internalType": "uint8",
          "name": "depth",
          "type": "uint8"
        },
        {
          "indexed": false,
          "internalType": "uint256",
          "name": "zeroValue",
          "type": "uint256"
        }
      ],
      "name": "GroupCreated",
      "type": "event"
    },
    {
      "anonymous": false,
      "inputs": [
        {
          "indexed": true,
          "internalType": "uint256",
          "name": "groupId",
          "type": "uint256"
        },
        {
          "indexed": false,
          "internalType": "uint256",
          "name": "identityCommitment",
          "type": "uint256"
        },
        {
          "indexed": false,
          "internalType": "uint256",
          "name": "root",
          "type": "uint256"
        }
      ],
      "name": "MemberAdded",
      "type": "event"
    },
    {
      "anonymous": false,
      "inputs": [
        {
          "indexed": true,
          "internalType": "uint256",
          "name": "groupId",
          "type": "uint256"
        },
        {
          "indexed": false,
          "internalType": "uint256",
          "name": "identityCommitment",
          "type": "uint256"
        },
        {
          "indexed": false,
          "internalType": "uint256",
          "name": "root",
          "type": "uint256"
        }
      ],
      "name": "MemberRemoved",
      "type": "event"
    },
    {
      "anonymous": false,
      "inputs": [
        {
          "indexed": false,
          "internalType": "uint256",
          "name": "nullifierHash",
          "type": "uint256"
        }
      ],
      "name": "NullifierHashAdded",
      "type": "event"
    },
    {
      "anonymous": false,
      "inputs": [
        {
          "indexed": true,
          "internalType": "address",
          "name": "previousOwner",
          "type": "address"
        },
        {
          "indexed": true,
          "internalType": "address",
          "name": "newOwner",
          "type": "address"
        }
      ],
      "name": "OwnershipTransferred",
      "type": "event"
    },
    {
      "inputs": [
        {
          "internalType": "uint256",
          "name": "entityId",
          "type": "uint256"
        },
        {
          "internalType": "uint256",
          "name": "identityCommitment",
          "type": "uint256"
        },
        {
          "internalType": "uint256",
          "name": "id",
          "type": "uint256"
        }
      ],
      "name": "addDAOIdentity",
      "outputs": [],
      "stateMutability": "nonpayable",
      "type": "function"
    },
    {
      "inputs": [
        {
          "internalType": "uint256",
          "name": "entity",
          "type": "uint256"
        },
        {
          "internalType": "uint256",
          "name": "identityCommitment",
          "type": "uint256"
        }
      ],
      "name": "addTestCommitment",
      "outputs": [],
      "stateMutability": "nonpayable",
      "type": "function"
    },
    {
      "inputs": [],
      "name": "asset",
      "outputs": [
        {
          "internalType": "address",
          "name": "",
          "type": "address"
        }
      ],
      "stateMutability": "view",
      "type": "function"
    },
    {
      "inputs": [
        {
          "internalType": "uint256",
          "name": "",
          "type": "uint256"
        }
      ],
      "name": "commitmentNFTs",
      "outputs": [
        {
          "internalType": "uint256",
          "name": "",
          "type": "uint256"
        }
      ],
      "stateMutability": "view",
      "type": "function"
    },
    {
      "inputs": [
        {
          "internalType": "uint256",
          "name": "",
          "type": "uint256"
        },
        {
          "internalType": "uint256",
          "name": "",
          "type": "uint256"
        }
      ],
      "name": "commitments",
      "outputs": [
        {
          "internalType": "uint256",
          "name": "",
          "type": "uint256"
        }
      ],
      "stateMutability": "view",
      "type": "function"
    },
    {
      "inputs": [
        {
          "internalType": "uint256",
          "name": "entityId",
          "type": "uint256"
        },
        {
          "internalType": "address",
          "name": "editor",
          "type": "address"
        },
        {
          "internalType": "address",
          "name": "token",
          "type": "address"
        }
      ],
      "name": "createEntity",
      "outputs": [],
      "stateMutability": "nonpayable",
      "type": "function"
    },
    {
      "inputs": [
        {
          "internalType": "uint256",
          "name": "groupId",
          "type": "uint256"
        }
      ],
      "name": "getDepth",
      "outputs": [
        {
          "internalType": "uint8",
          "name": "",
          "type": "uint8"
        }
      ],
      "stateMutability": "view",
      "type": "function"
    },
    {
      "inputs": [
        {
          "internalType": "uint256",
          "name": "groupId",
          "type": "uint256"
        }
      ],
      "name": "getNumberOfLeaves",
      "outputs": [
        {
          "internalType": "uint256",
          "name": "",
          "type": "uint256"
        }
      ],
      "stateMutability": "view",
      "type": "function"
    },
    {
      "inputs": [
        {
          "internalType": "uint256",
          "name": "groupId",
          "type": "uint256"
        }
      ],
      "name": "getRoot",
      "outputs": [
        {
          "internalType": "uint256",
          "name": "",
          "type": "uint256"
        }
      ],
      "stateMutability": "view",
      "type": "function"
    },
    {
      "inputs": [
        {
          "internalType": "uint256",
          "name": "id",
          "type": "uint256"
        }
      ],
      "name": "getTreeInfo",
      "outputs": [
        {
          "internalType": "uint256[]",
          "name": "",
          "type": "uint256[]"
        },
        {
          "internalType": "uint256",
          "name": "",
          "type": "uint256"
        }
      ],
      "stateMutability": "view",
      "type": "function"
    },
    {
      "inputs": [
        {
          "internalType": "uint256",
          "name": "",
          "type": "uint256"
        },
        {
          "internalType": "uint256",
          "name": "",
          "type": "uint256"
        }
      ],
      "name": "groupCommitments",
      "outputs": [
        {
          "internalType": "uint256",
          "name": "",
          "type": "uint256"
        }
      ],
      "stateMutability": "view",
      "type": "function"
    },
    {
      "inputs": [
        {
          "internalType": "uint256",
          "name": "",
          "type": "uint256"
        }
      ],
      "name": "groupDeposits",
      "outputs": [
        {
          "internalType": "uint256",
          "name": "",
          "type": "uint256"
        }
      ],
      "stateMutability": "view",
      "type": "function"
    },
    {
      "inputs": [
        {
          "internalType": "uint256",
          "name": "",
          "type": "uint256"
        }
      ],
      "name": "membershipTokens",
      "outputs": [
        {
          "internalType": "address",
          "name": "",
          "type": "address"
        }
      ],
      "stateMutability": "view",
      "type": "function"
    },
    {
      "inputs": [
        {
          "internalType": "address",
          "name": "",
          "type": "address"
        },
        {
          "internalType": "address",
          "name": "",
          "type": "address"
        },
        {
          "internalType": "uint256",
          "name": "",
          "type": "uint256"
        },
        {
          "internalType": "bytes",
          "name": "",
          "type": "bytes"
        }
      ],
      "name": "onERC721Received",
      "outputs": [
        {
          "internalType": "bytes4",
          "name": "",
          "type": "bytes4"
        }
      ],
      "stateMutability": "nonpayable",
      "type": "function"
    },
    {
      "inputs": [],
      "name": "owner",
      "outputs": [
        {
          "internalType": "address",
          "name": "",
          "type": "address"
        }
      ],
      "stateMutability": "view",
      "type": "function"
    },
    {
      "inputs": [],
      "name": "renounceOwnership",
      "outputs": [],
      "stateMutability": "nonpayable",
      "type": "function"
    },
    {
      "inputs": [
        {
          "internalType": "address",
          "name": "newOwner",
          "type": "address"
        }
      ],
      "name": "transferOwnership",
      "outputs": [],
      "stateMutability": "nonpayable",
      "type": "function"
    },
    {
      "inputs": [
        {
          "internalType": "bytes32",
          "name": "_sig",
          "type": "bytes32"
        },
        {
          "internalType": "uint256",
          "name": "_nullifierHash",
          "type": "uint256"
        },
        {
          "internalType": "uint256[8]",
          "name": "_proof",
          "type": "uint256[8]"
        },
        {
          "internalType": "uint256",
          "name": "entityId",
          "type": "uint256"
        }
      ],
      "name": "verifyTest",
      "outputs": [
        {
          "internalType": "bool",
          "name": "",
          "type": "bool"
        }
      ],
      "stateMutability": "view",
      "type": "function"
    }
  ],
  "bytecode": "0x60806040523480156200001157600080fd5b50604051620023793803806200237983398181016040528101906200003791906200044b565b620000576200004b620000b460201b60201c565b620000bc60201b60201c565b81600960006101000a81548173ffffffffffffffffffffffffffffffffffffffff021916908373ffffffffffffffffffffffffffffffffffffffff160217905550620000ac600133836200018260201b60201c565b50506200069f565b600033905090565b6000600260009054906101000a900473ffffffffffffffffffffffffffffffffffffffff16905081600260006101000a81548173ffffffffffffffffffffffffffffffffffffffff021916908373ffffffffffffffffffffffffffffffffffffffff1602179055508173ffffffffffffffffffffffffffffffffffffffff168173ffffffffffffffffffffffffffffffffffffffff167f8be0079c531659141344cd1fd0a4f28419497f9722a3daafe3b4186f6b6457e060405160405180910390a35050565b6200019783601460006200023260201b60201c565b82600560008473ffffffffffffffffffffffffffffffffffffffff1673ffffffffffffffffffffffffffffffffffffffff16815260200190815260200160002081905550806006600085815260200190815260200160002060006101000a81548173ffffffffffffffffffffffffffffffffffffffff021916908373ffffffffffffffffffffffffffffffffffffffff160217905550505050565b7f30644e72e131a029b85045b68181585d2833e84879b9709143e1f593f0000001831062000297576040517f08c379a00000000000000000000000000000000000000000000000000000000081526004016200028e9062000519565b60405180910390fd5b6000620002aa84620003b460201b60201c565b60ff1614620002f0576040517f08c379a0000000000000000000000000000000000000000000000000000000008152600401620002e790620005b1565b60405180910390fd5b6001600084815260200190815260200160002073__$4c0484323457fe1a856f46a4759b553fe4$__63b4bdd117909184846040518463ffffffff1660e01b8152600401620003419392919062000613565b60006040518083038186803b1580156200035a57600080fd5b505af41580156200036f573d6000803e3d6000fd5b50505050827fc3082aa494e9088c2c9f0fb62a0b6bd46e6699acb94cfba35be29b95a93f68c88383604051620003a792919062000672565b60405180910390a2505050565b60006001600083815260200190815260200160002060000160009054906101000a900460ff169050919050565b600080fd5b600073ffffffffffffffffffffffffffffffffffffffff82169050919050565b60006200041382620003e6565b9050919050565b620004258162000406565b81146200043157600080fd5b50565b60008151905062000445816200041a565b92915050565b60008060408385031215620004655762000464620003e1565b5b6000620004758582860162000434565b9250506020620004888582860162000434565b9150509250929050565b600082825260208201905092915050565b7f53656d6170686f726547726f7570733a2067726f7570206964206d757374206260008201527f65203c20534e41524b5f5343414c41525f4649454c4400000000000000000000602082015250565b60006200050160368362000492565b91506200050e82620004a3565b604082019050919050565b600060208201905081810360008301526200053481620004f2565b9050919050565b7f53656d6170686f726547726f7570733a2067726f757020616c7265616479206560008201527f7869737473000000000000000000000000000000000000000000000000000000602082015250565b60006200059960258362000492565b9150620005a6826200053b565b604082019050919050565b60006020820190508181036000830152620005cc816200058a565b9050919050565b8082525050565b600060ff82169050919050565b620005f281620005da565b82525050565b6000819050919050565b6200060d81620005f8565b82525050565b60006060820190506200062a6000830186620005d3565b620006396020830185620005e7565b62000648604083018462000602565b949350505050565b6200065b81620005da565b82525050565b6200066c81620005f8565b82525050565b600060408201905062000689600083018562000650565b62000698602083018462000661565b9392505050565b611cca80620006af6000396000f3fe608060405234801561001057600080fd5b50600436106101165760003560e01c80638da5cb5b116100a2578063d13e2e6011610071578063d13e2e6014610319578063d868b1fd14610349578063dbebcab214610365578063e86ac1d514610395578063f2fde38b146103c657610116565b80638da5cb5b1461026b5780639b24b3b014610289578063b1168527146102b9578063b9c78c2b146102e957610116565b80634d56f27d116100e95780634d56f27d146101b557806364335bc1146101e5578063715018a61461020157806375e618c91461020b5780638cdde82e1461023b57610116565b8063112769da1461011b578063150b7a021461014b578063171015711461017b57806338d52e0f14610197575b600080fd5b61013560048036038101906101309190610f45565b6103e2565b6040516101429190610f94565b60405180910390f35b61016560048036038101906101609190611153565b610413565b6040516101729190611211565b60405180910390f35b6101956004803603810190610190919061122c565b610427565b005b61019f6104cf565b6040516101ac919061128e565b60405180910390f35b6101cf60048036038101906101ca91906112a9565b6104f5565b6040516101dc919061128e565b60405180910390f35b6101ff60048036038101906101fa9190610f45565b610528565b005b610209610570565b005b610225600480360381019061022091906112a9565b610584565b60405161023291906112f2565b60405180910390f35b610255600480360381019061025091906112a9565b6105b1565b6040516102629190610f94565b60405180910390f35b6102736105c9565b604051610280919061128e565b60405180910390f35b6102a3600480360381019061029e91906112a9565b6105f3565b6040516102b09190610f94565b60405180910390f35b6102d360048036038101906102ce91906112a9565b610613565b6040516102e09190610f94565b60405180910390f35b61030360048036038101906102fe91906112a9565b61062b565b6040516103109190610f94565b60405180910390f35b610333600480360381019061032e9190610f45565b61064b565b6040516103409190610f94565b60405180910390f35b610363600480360381019061035e919061130d565b61067c565b005b61037f600480360381019061037a91906113bd565b61077f565b60405161038c9190611441565b60405180910390f35b6103af60048036038101906103aa91906112a9565b6107ca565b6040516103bd92919061151a565b60405180910390f35b6103e060048036038101906103db919061154a565b610845565b005b600460205281600052604060002081815481106103fe57600080fd5b90600052602060002001600091509150505481565b600063150b7a0260e01b9050949350505050565b61043483601460006108c9565b82600560008473ffffffffffffffffffffffffffffffffffffffff1673ffffffffffffffffffffffffffffffffffffffff16815260200190815260200160002081905550806006600085815260200190815260200160002060006101000a81548173ffffffffffffffffffffffffffffffffffffffff021916908373ffffffffffffffffffffffffffffffffffffffff160217905550505050565b600a60009054906101000a900473ffffffffffffffffffffffffffffffffffffffff1681565b60066020528060005260406000206000915054906101000a900473ffffffffffffffffffffffffffffffffffffffff1681565b6004600083815260200190815260200160002081908060018154018082558091505060019003906000526020600020016000909190919091505561056c8282610a37565b5050565b610578610b4f565b6105826000610bcd565b565b60006001600083815260200190815260200160002060000160009054906101000a900460ff169050919050565b60076020528060005260406000206000915090505481565b6000600260009054906101000a900473ffffffffffffffffffffffffffffffffffffffff16905090565b600060016000838152602001908152602001600020600101549050919050565b60036020528060005260406000206000915090505481565b600060016000838152602001908152602001600020600201549050919050565b6008602052816000526040600020818154811061066757600080fd5b90600052602060002001600091509150505481565b6006600084815260200190815260200160002060009054906101000a900473ffffffffffffffffffffffffffffffffffffffff1673ffffffffffffffffffffffffffffffffffffffff166342842e0e3330846040518463ffffffff1660e01b81526004016106ec93929190611577565b600060405180830381600087803b15801561070657600080fd5b505af115801561071a573d6000803e3d6000fd5b505050506008600084815260200190815260200160002082908060018154018082558091505060019003906000526020600020016000909190919091505580600760008581526020019081526020016000208190555061077a8383610a37565b505050565b60008061078b836105f3565b90506107bd8682878488600960009054906101000a900473ffffffffffffffffffffffffffffffffffffffff16610c93565b6001915050949350505050565b60606000600460008481526020019081526020016000206107ea846105f3565b8180548060200260200160405190810160405280929190818152602001828054801561083557602002820191906000526020600020905b815481526020019060010190808311610821575b5050505050915091509150915091565b61084d610b4f565b600073ffffffffffffffffffffffffffffffffffffffff168173ffffffffffffffffffffffffffffffffffffffff1614156108bd576040517f08c379a00000000000000000000000000000000000000000000000000000000081526004016108b490611631565b60405180910390fd5b6108c681610bcd565b50565b7f30644e72e131a029b85045b68181585d2833e84879b9709143e1f593f0000001831061092b576040517f08c379a0000000000000000000000000000000000000000000000000000000008152600401610922906116c3565b60405180910390fd5b600061093684610584565b60ff1614610979576040517f08c379a000000000000000000000000000000000000000000000000000000000815260040161097090611755565b60405180910390fd5b6001600084815260200190815260200160002073__$4c0484323457fe1a856f46a4759b553fe4$__63b4bdd117909184846040518463ffffffff1660e01b81526004016109c89392919061179a565b60006040518083038186803b1580156109e057600080fd5b505af41580156109f4573d6000803e3d6000fd5b50505050827fc3082aa494e9088c2c9f0fb62a0b6bd46e6699acb94cfba35be29b95a93f68c88383604051610a2a9291906117d1565b60405180910390a2505050565b6000610a4283610584565b60ff161415610a86576040517f08c379a0000000000000000000000000000000000000000000000000000000008152600401610a7d9061186c565b60405180910390fd5b6001600083815260200190815260200160002073__$4c0484323457fe1a856f46a4759b553fe4$__63168703fa9091836040518363ffffffff1660e01b8152600401610ad392919061188c565b60006040518083038186803b158015610aeb57600080fd5b505af4158015610aff573d6000803e3d6000fd5b505050506000610b0e836105f3565b9050827f03fd27265b7dd1f55558bedc22a58fa3b10afb1be776e614bd5a7ba7b94994068383604051610b429291906118b5565b60405180910390a2505050565b610b57610ebc565b73ffffffffffffffffffffffffffffffffffffffff16610b756105c9565b73ffffffffffffffffffffffffffffffffffffffff1614610bcb576040517f08c379a0000000000000000000000000000000000000000000000000000000008152600401610bc29061192a565b60405180910390fd5b565b6000600260009054906101000a900473ffffffffffffffffffffffffffffffffffffffff16905081600260006101000a81548173ffffffffffffffffffffffffffffffffffffffff021916908373ffffffffffffffffffffffffffffffffffffffff1602179055508173ffffffffffffffffffffffffffffffffffffffff168173ffffffffffffffffffffffffffffffffffffffff167f8be0079c531659141344cd1fd0a4f28419497f9722a3daafe3b4186f6b6457e060405160405180910390a35050565b60008085815260200190815260200160002060009054906101000a900460ff1615610cf3576040517f08c379a0000000000000000000000000000000000000000000000000000000008152600401610cea906119bc565b60405180910390fd5b6000610cfe87610ec4565b90508173ffffffffffffffffffffffffffffffffffffffff16635fe8c13b604051806040016040528086600060088110610d3b57610d3a6119dc565b5b6020020135815260200186600160088110610d5957610d586119dc565b5b60200201358152506040518060400160405280604051806040016040528089600260088110610d8b57610d8a6119dc565b5b6020020135815260200189600360088110610da957610da86119dc565b5b60200201358152508152602001604051806040016040528089600460088110610dd557610dd46119dc565b5b6020020135815260200189600560088110610df357610df26119dc565b5b6020020135815250815250604051806040016040528088600660088110610e1d57610e1c6119dc565b5b6020020135815260200188600760088110610e3b57610e3a6119dc565b5b602002013581525060405180608001604052808c81526020018b81526020018781526020018a8152506040518563ffffffff1660e01b8152600401610e839493929190611c11565b60006040518083038186803b158015610e9b57600080fd5b505afa158015610eaf573d6000803e3d6000fd5b5050505050505050505050565b600033905090565b6000600882604051602001610ed99190611c79565b6040516020818303038152906040528051906020012060001c901c9050919050565b6000604051905090565b600080fd5b600080fd5b6000819050919050565b610f2281610f0f565b8114610f2d57600080fd5b50565b600081359050610f3f81610f19565b92915050565b60008060408385031215610f5c57610f5b610f05565b5b6000610f6a85828601610f30565b9250506020610f7b85828601610f30565b9150509250929050565b610f8e81610f0f565b82525050565b6000602082019050610fa96000830184610f85565b92915050565b600073ffffffffffffffffffffffffffffffffffffffff82169050919050565b6000610fda82610faf565b9050919050565b610fea81610fcf565b8114610ff557600080fd5b50565b60008135905061100781610fe1565b92915050565b600080fd5b600080fd5b6000601f19601f8301169050919050565b7f4e487b7100000000000000000000000000000000000000000000000000000000600052604160045260246000fd5b61106082611017565b810181811067ffffffffffffffff8211171561107f5761107e611028565b5b80604052505050565b6000611092610efb565b905061109e8282611057565b919050565b600067ffffffffffffffff8211156110be576110bd611028565b5b6110c782611017565b9050602081019050919050565b82818337600083830152505050565b60006110f66110f1846110a3565b611088565b90508281526020810184848401111561111257611111611012565b5b61111d8482856110d4565b509392505050565b600082601f83011261113a5761113961100d565b5b813561114a8482602086016110e3565b91505092915050565b6000806000806080858703121561116d5761116c610f05565b5b600061117b87828801610ff8565b945050602061118c87828801610ff8565b935050604061119d87828801610f30565b925050606085013567ffffffffffffffff8111156111be576111bd610f0a565b5b6111ca87828801611125565b91505092959194509250565b60007fffffffff0000000000000000000000000000000000000000000000000000000082169050919050565b61120b816111d6565b82525050565b60006020820190506112266000830184611202565b92915050565b60008060006060848603121561124557611244610f05565b5b600061125386828701610f30565b935050602061126486828701610ff8565b925050604061127586828701610ff8565b9150509250925092565b61128881610fcf565b82525050565b60006020820190506112a3600083018461127f565b92915050565b6000602082840312156112bf576112be610f05565b5b60006112cd84828501610f30565b91505092915050565b600060ff82169050919050565b6112ec816112d6565b82525050565b600060208201905061130760008301846112e3565b92915050565b60008060006060848603121561132657611325610f05565b5b600061133486828701610f30565b935050602061134586828701610f30565b925050604061135686828701610f30565b9150509250925092565b6000819050919050565b61137381611360565b811461137e57600080fd5b50565b6000813590506113908161136a565b92915050565b600080fd5b6000819050826020600802820111156113b7576113b6611396565b5b92915050565b60008060008061016085870312156113d8576113d7610f05565b5b60006113e687828801611381565b94505060206113f787828801610f30565b93505060406114088782880161139b565b92505061014061141a87828801610f30565b91505092959194509250565b60008115159050919050565b61143b81611426565b82525050565b60006020820190506114566000830184611432565b92915050565b600081519050919050565b600082825260208201905092915050565b6000819050602082019050919050565b61149181610f0f565b82525050565b60006114a38383611488565b60208301905092915050565b6000602082019050919050565b60006114c78261145c565b6114d18185611467565b93506114dc83611478565b8060005b8381101561150d5781516114f48882611497565b97506114ff836114af565b9250506001810190506114e0565b5085935050505092915050565b6000604082019050818103600083015261153481856114bc565b90506115436020830184610f85565b9392505050565b6000602082840312156115605761155f610f05565b5b600061156e84828501610ff8565b91505092915050565b600060608201905061158c600083018661127f565b611599602083018561127f565b6115a66040830184610f85565b949350505050565b600082825260208201905092915050565b7f4f776e61626c653a206e6577206f776e657220697320746865207a65726f206160008201527f6464726573730000000000000000000000000000000000000000000000000000602082015250565b600061161b6026836115ae565b9150611626826115bf565b604082019050919050565b6000602082019050818103600083015261164a8161160e565b9050919050565b7f53656d6170686f726547726f7570733a2067726f7570206964206d757374206260008201527f65203c20534e41524b5f5343414c41525f4649454c4400000000000000000000602082015250565b60006116ad6036836115ae565b91506116b882611651565b604082019050919050565b600060208201905081810360008301526116dc816116a0565b9050919050565b7f53656d6170686f726547726f7570733a2067726f757020616c7265616479206560008201527f7869737473000000000000000000000000000000000000000000000000000000602082015250565b600061173f6025836115ae565b915061174a826116e3565b604082019050919050565b6000602082019050818103600083015261176e81611732565b9050919050565b8082525050565b611785816112d6565b82525050565b61179481610f0f565b82525050565b60006060820190506117af6000830186611775565b6117bc602083018561177c565b6117c9604083018461178b565b949350505050565b60006040820190506117e660008301856112e3565b6117f36020830184610f85565b9392505050565b7f53656d6170686f726547726f7570733a2067726f757020646f6573206e6f742060008201527f6578697374000000000000000000000000000000000000000000000000000000602082015250565b60006118566025836115ae565b9150611861826117fa565b604082019050919050565b6000602082019050818103600083015261188581611849565b9050919050565b60006040820190506118a16000830185611775565b6118ae602083018461178b565b9392505050565b60006040820190506118ca6000830185610f85565b6118d76020830184610f85565b9392505050565b7f4f776e61626c653a2063616c6c6572206973206e6f7420746865206f776e6572600082015250565b60006119146020836115ae565b915061191f826118de565b602082019050919050565b6000602082019050818103600083015261194381611907565b9050919050565b7f53656d6170686f7265436f72653a20796f752063616e6e6f742075736520746860008201527f652073616d65206e756c6c696669657220747769636500000000000000000000602082015250565b60006119a66036836115ae565b91506119b18261194a565b604082019050919050565b600060208201905081810360008301526119d581611999565b9050919050565b7f4e487b7100000000000000000000000000000000000000000000000000000000600052603260045260246000fd5b600060029050919050565b600081905092915050565b6000819050919050565b6000602082019050919050565b611a4181611a0b565b611a4b8184611a16565b9250611a5682611a21565b8060005b83811015611a87578151611a6e8782611497565b9650611a7983611a2b565b925050600181019050611a5a565b505050505050565b600060029050919050565b600081905092915050565b6000819050919050565b600081905092915050565b611ac381611a0b565b611acd8184611aaf565b9250611ad882611a21565b8060005b83811015611b09578151611af08782611497565b9650611afb83611a2b565b925050600181019050611adc565b505050505050565b6000611b1d8383611aba565b60408301905092915050565b6000602082019050919050565b611b3f81611a8f565b611b498184611a9a565b9250611b5482611aa5565b8060005b83811015611b85578151611b6c8782611b11565b9650611b7783611b29565b925050600181019050611b58565b505050505050565b600060049050919050565b600081905092915050565b6000819050919050565b6000602082019050919050565b611bc381611b8d565b611bcd8184611b98565b9250611bd882611ba3565b8060005b83811015611c09578151611bf08782611497565b9650611bfb83611bad565b925050600181019050611bdc565b505050505050565b600061018082019050611c276000830187611a38565b611c346040830186611b36565b611c4160c0830185611a38565b611c4f610100830184611bba565b95945050505050565b6000819050919050565b611c73611c6e82611360565b611c58565b82525050565b6000611c858284611c62565b6020820191508190509291505056fea26469706673582212200b058fce061597e7d177b2e98a233e8ec07b5717db3b2d2cd74538cd48b7d2e664736f6c634300080b0033",
  "linkReferences": {
    "@zk-kit/incremental-merkle-tree.sol/contracts/IncrementalBinaryTree.sol": {
      "IncrementalBinaryTree": [
        {
          "length": 20,
          "start": 773
        },
        {
          "length": 20,
          "start": 4157
        },
        {
          "length": 20,
          "start": 4426
        }
      ]
    }
  },
  "deployedLinkReferences": {
    "@zk-kit/incremental-merkle-tree.sol/contracts/IncrementalBinaryTree.sol": {
      "IncrementalBinaryTree": [
        {
          "length": 20,
          "start": 2446
        },
        {
          "length": 20,
          "start": 2715
        }
      ]
    }
  }
}